:02000000FE2FD1
:100F16000730831203139F048316031306108610EB
:100F26000611861106128612831203130614861200
:100F36000630F2001330F100AD30F000F00BA12FB7
:100F4600F10BA12FF20BA12FA82F831203138614E6
:100F560006100630F2001330F100AD30F000F00B51
:100F6600B22FF10BB22FF20BB22FB92F831203134C
:100F7600061586100630F2001330F100AD30F00091
:100F8600F00BC32FF10BC32FF20BC32FCA2F831203
:100F96000313061186150630F2001330F100AD304A
:100FA600F000F00BD42FF10BD42FF20BD42FDB2F44
:100FB60083120313861106160630F2001330F10071
:100FC600AD30F000F00BE52FF10BE52FF20BE52F1E
:100FD600EC2F83120313061286160630F200133026
:100FE600F100AD30F000F00BF62FF10BF62FF20BFF
:0A0FF600F62FFD2F972F83018B2F9C
:02400E0019FF98
:00000001FF
