:02000000FE2FD1
:100E5C0083120313051C372F0130F0000030F10012
:100E6C000800F001F1010800F301F40107308312CE
:100E7C0003139F04831603130610861006118611A4
:100E8C00061286121F3085002E2770087104031974
:100E9C00532F0130F3000030F4007308740403196D
:100EAC00592F97274A2F5B274A2F831203130614B7
:100EBC00061506160630F2001330F100AD30F000C6
:100ECC00F00B662FF10B662FF20B662F6D2F831232
:100EDC0003130610061106120630F2001330F1004F
:100EEC00AD30F000F00B782FF10B782FF20B782F40
:100EFC007F2F831203138614861586160630F20094
:100F0C001330F100AD30F000F00B8A2FF10B8A2F6B
:100F1C00F20B8A2F912F83120313861086118612DF
:100F2C00080083120313061486120630F2001330E5
:100F3C00F100AD30F000F00BA12FF10BA12FF20B53
:100F4C00A12FA82F83120313861406100630F2006B
:100F5C001330F100AD30F000F00BB22FF10BB22FCB
:100F6C00F20BB22FB92F831203130615861006301D
:100F7C00F2001330F100AD30F000F00BC32FF10B89
:100F8C00C32FF20BC32FCA2F83120313061186151E
:100F9C000630F2001330F100AD30F000F00BD42F1E
:100FAC00F10BD42FF20BD42FDB2F831203138611EA
:100FBC0006160630F2001330F100AD30F000F00BE5
:100FCC00E52FF10BE52FF20BE52FEC2F831203131A
:100FDC00061286160630F2001330F100AD30F00028
:100FEC00F00BF62FF10BF62FF20BF62FFD2F08005E
:040FFC0083013A2F04
:02400E0019FF98
:00000001FF
